:020000040000FA
:020000000000FE
:0E000200936A956A606B616B076A818E8382D8
:1000100083847DEC00F0839283940FEF00F0838063
:100020008382838C838883867DEC00F08390839227
:10003000839C839883961DEF00F083808382838C5A
:10004000838483867DEC00F083908392839C8394E9
:1000500083962BEF00F0838A838C838483827DECEC
:1000600000F0839A839C8394839237EF00F083801F
:10007000838A838C838483867DEC00F08390839ACB
:10008000839C8394839645EF00F0838A838C8384DA
:10009000838683887DEC00F0839A839C8394839687
:1000A000839853EF00F08380838283847DEC00F09B
:1000B0008380838283845DEF00F08380838A8382E0
:1000C000838C8388838483867DEC00F08390839A7D
:1000D0008392839C8398839483966FEF00F0838050
:1000E000838A8382838C83847DEC00F08390839A5F
:1000F0008392839C839406EF00F0602F7DEF00F0E5
:08010000612F7DEF00F01200F9
:020000040030CA
:0100000000FF
:010001000BF3
:010002001FDE
:010003001EDE
:010005008179
:010006008178
:010008000FE8
:01000900C036
:01000A000FE6
:01000B00E014
:01000C000FE4
:01000D0040B2
:00000001FF
